{
  "_format": "hh-sol-artifact-1",
  "contractName": "studentPortal",
  "sourceName": "contracts/StudentPortal.sol",
  "abi": [
    {
      "inputs": [],
      "stateMutability": "nonpayable",
      "type": "constructor"
    },
    {
      "inputs": [
        {
          "internalType": "string",
          "name": "_name",
          "type": "string"
        },
        {
          "internalType": "string",
          "name": "_email",
          "type": "string"
        },
        {
          "internalType": "uint256",
          "name": "_dob",
          "type": "uint256"
        },
        {
          "internalType": "string",
          "name": "_lga",
          "type": "string"
        },
        {
          "internalType": "string",
          "name": "_country",
          "type": "string"
        },
        {
          "internalType": "string",
          "name": "_state",
          "type": "string"
        }
      ],
      "name": "createPortal",
      "outputs": [],
      "stateMutability": "nonpayable",
      "type": "function"
    },
    {
      "inputs": [
        {
          "internalType": "uint256",
          "name": "_index",
          "type": "uint256"
        }
      ],
      "name": "deleteStudent",
      "outputs": [],
      "stateMutability": "nonpayable",
      "type": "function"
    },
    {
      "inputs": [
        {
          "internalType": "uint256",
          "name": "_index",
          "type": "uint256"
        },
        {
          "internalType": "string",
          "name": "_name",
          "type": "string"
        },
        {
          "internalType": "string",
          "name": "_email",
          "type": "string"
        },
        {
          "internalType": "uint256",
          "name": "_dob",
          "type": "uint256"
        },
        {
          "internalType": "string",
          "name": "_lga",
          "type": "string"
        },
        {
          "internalType": "string",
          "name": "_country",
          "type": "string"
        },
        {
          "internalType": "string",
          "name": "_state",
          "type": "string"
        }
      ],
      "name": "updateStudent",
      "outputs": [],
      "stateMutability": "nonpayable",
      "type": "function"
    }
  ],
  "bytecode": "0x608060405234801561001057600080fd5b50336000806101000a81548173ffffffffffffffffffffffffffffffffffffffff021916908373ffffffffffffffffffffffffffffffffffffffff160217905550610f94806100606000396000f3fe608060405234801561001057600080fd5b50600436106100415760003560e01c80630f82010d14610046578063b645307d14610062578063d9eb2ef81461007e575b600080fd5b610060600480360381019061005b91906106ed565b61009a565b005b61007c60048036038101906100779190610806565b610174565b005b61009860048036038101906100939190610833565b610358565b005b60016040518060c0016040528088815260200187815260200186815260200185815260200184815260200183815250908060018154018082558091505060019003906000526020600020906006020160009091909190915060008201518160000190816101079190610b78565b50602082015181600101908161011d9190610b78565b5060408201518160020155606082015181600301908161013d9190610b78565b5060808201518160040190816101539190610b78565b5060a08201518160050190816101699190610b78565b505050505050505050565b60008054906101000a900473ffffffffffffffffffffffffffffffffffffffff1673ffffffffffffffffffffffffffffffffffffffff163373ffffffffffffffffffffffffffffffffffffffff1614610202576040517f08c379a00000000000000000000000000000000000000000000000000000000081526004016101f990610ca7565b60405180910390fd5b60018054905050600180808054905061021b9190610cf6565b8154811061022c5761022b610d2a565b5b90600052602060002090600602016001828154811061024e5761024d610d2a565b5b9060005260206000209060060201600082018160000190816102709190610d6f565b50600182018160010190816102859190610d6f565b5060028201548160020155600382018160030190816102a49190610d6f565b50600482018160040190816102b99190610d6f565b50600582018160050190816102ce9190610d6f565b5090505060018054806102e4576102e3610e57565b5b6001900381819060005260206000209060060201600080820160006103099190610500565b6001820160006103199190610500565b60028201600090556003820160006103319190610500565b6004820160006103419190610500565b6005820160006103519190610500565b5050905550565b60008054906101000a900473ffffffffffffffffffffffffffffffffffffffff1673ffffffffffffffffffffffffffffffffffffffff163373ffffffffffffffffffffffffffffffffffffffff16146103e6576040517f08c379a00000000000000000000000000000000000000000000000000000000081526004016103dd90610ed2565b60405180910390fd5b600180549050871061042d576040517f08c379a000000000000000000000000000000000000000000000000000000000815260040161042490610f3e565b60405180910390fd5b6040518060c00160405280878152602001868152602001858152602001848152602001838152602001828152506001888154811061046e5761046d610d2a565b5b906000526020600020906006020160008201518160000190816104919190610b78565b5060208201518160010190816104a79190610b78565b506040820151816002015560608201518160030190816104c79190610b78565b5060808201518160040190816104dd9190610b78565b5060a08201518160050190816104f39190610b78565b5090505050505050505050565b50805461050c9061099b565b6000825580601f1061051e575061053d565b601f01602090049060005260206000209081019061053c9190610540565b5b50565b5b80821115610559576000816000905550600101610541565b5090565b6000604051905090565b600080fd5b600080fd5b600080fd5b600080fd5b6000601f19601f8301169050919050565b7f4e487b7100000000000000000000000000000000000000000000000000000000600052604160045260246000fd5b6105c48261057b565b810181811067ffffffffffffffff821117156105e3576105e261058c565b5b80604052505050565b60006105f661055d565b905061060282826105bb565b919050565b600067ffffffffffffffff8211156106225761062161058c565b5b61062b8261057b565b9050602081019050919050565b82818337600083830152505050565b600061065a61065584610607565b6105ec565b90508281526020810184848401111561067657610675610576565b5b610681848285610638565b509392505050565b600082601f83011261069e5761069d610571565b5b81356106ae848260208601610647565b91505092915050565b6000819050919050565b6106ca816106b7565b81146106d557600080fd5b50565b6000813590506106e7816106c1565b92915050565b60008060008060008060c0878903121561070a57610709610567565b5b600087013567ffffffffffffffff8111156107285761072761056c565b5b61073489828a01610689565b965050602087013567ffffffffffffffff8111156107555761075461056c565b5b61076189828a01610689565b955050604061077289828a016106d8565b945050606087013567ffffffffffffffff8111156107935761079261056c565b5b61079f89828a01610689565b935050608087013567ffffffffffffffff8111156107c0576107bf61056c565b5b6107cc89828a01610689565b92505060a087013567ffffffffffffffff8111156107ed576107ec61056c565b5b6107f989828a01610689565b9150509295509295509295565b60006020828403121561081c5761081b610567565b5b600061082a848285016106d8565b91505092915050565b600080600080600080600060e0888a03121561085257610851610567565b5b60006108608a828b016106d8565b975050602088013567ffffffffffffffff8111156108815761088061056c565b5b61088d8a828b01610689565b965050604088013567ffffffffffffffff8111156108ae576108ad61056c565b5b6108ba8a828b01610689565b95505060606108cb8a828b016106d8565b945050608088013567ffffffffffffffff8111156108ec576108eb61056c565b5b6108f88a828b01610689565b93505060a088013567ffffffffffffffff8111156109195761091861056c565b5b6109258a828b01610689565b92505060c088013567ffffffffffffffff8111156109465761094561056c565b5b6109528a828b01610689565b91505092959891949750929550565b600081519050919050565b7f4e487b7100000000000000000000000000000000000000000000000000000000600052602260045260246000fd5b600060028204905060018216806109b357607f821691505b6020821081036109c6576109c561096c565b5b50919050565b60008190508160005260206000209050919050565b60006020601f8301049050919050565b600082821b905092915050565b600060088302610a2e7fffffffffffffffffffffffffffffffffffffffffffffffffffffffffffffffff826109f1565b610a3886836109f1565b95508019841693508086168417925050509392505050565b6000819050919050565b6000610a75610a70610a6b846106b7565b610a50565b6106b7565b9050919050565b6000819050919050565b610a8f83610a5a565b610aa3610a9b82610a7c565b8484546109fe565b825550505050565b600090565b610ab8610aab565b610ac3818484610a86565b505050565b5b81811015610ae757610adc600082610ab0565b600181019050610ac9565b5050565b601f821115610b2c57610afd816109cc565b610b06846109e1565b81016020851015610b15578190505b610b29610b21856109e1565b830182610ac8565b50505b505050565b600082821c905092915050565b6000610b4f60001984600802610b31565b1980831691505092915050565b6000610b688383610b3e565b9150826002028217905092915050565b610b8182610961565b67ffffffffffffffff811115610b9a57610b9961058c565b5b610ba4825461099b565b610baf828285610aeb565b600060209050601f831160018114610be25760008415610bd0578287015190505b610bda8582610b5c565b865550610c42565b601f198416610bf0866109cc565b60005b82811015610c1857848901518255600182019150602085019450602081019050610bf3565b86831015610c355784890151610c31601f891682610b3e565b8355505b6001600288020188555050505b505050505050565b600082825260208201905092915050565b7f596f75277265206e6f7420656c696769626c6520746f20646f20746869730000600082015250565b6000610c91601e83610c4a565b9150610c9c82610c5b565b602082019050919050565b60006020820190508181036000830152610cc081610c84565b9050919050565b7f4e487b7100000000000000000000000000000000000000000000000000000000600052601160045260246000fd5b6000610d01826106b7565b9150610d0c836106b7565b9250828203905081811115610d2457610d23610cc7565b5b92915050565b7f4e487b7100000000000000000000000000000000000000000000000000000000600052603260045260246000fd5b600081549050610d688161099b565b9050919050565b818103610d7d575050610e55565b610d8682610d59565b67ffffffffffffffff811115610d9f57610d9e61058c565b5b610da9825461099b565b610db4828285610aeb565b6000601f831160018114610de35760008415610dd1578287015490505b610ddb8582610b5c565b865550610e4e565b601f198416610df1876109cc565b9650610dfc866109cc565b60005b82811015610e2457848901548255600182019150600185019450602081019050610dff565b86831015610e415784890154610e3d601f891682610b3e565b8355505b6001600288020188555050505b5050505050505b565b7f4e487b7100000000000000000000000000000000000000000000000000000000600052603160045260246000fd5b7f596f75277265206e6f7420656c696769626c6520666f72207468697300000000600082015250565b6000610ebc601c83610c4a565b9150610ec782610e86565b602082019050919050565b60006020820190508181036000830152610eeb81610eaf565b9050919050565b7f53747564656e7420696e646578206f7574206f6620626f756e64730000000000600082015250565b6000610f28601b83610c4a565b9150610f3382610ef2565b602082019050919050565b60006020820190508181036000830152610f5781610f1b565b905091905056fea2646970667358221220a798f5f351587b0c535e6316502378d1a0f6320848970e2d5fc39a3a7f91800064736f6c63430008180033",
  "linkReferences": {},
  "deployedLinkReferences": {}
}